:020000003028A6
:1000080080312000911A1228090020000230A10036
:10001800090023001E142000A103080020009112EB
:10002800230019082000A000F03C03190928230028
:100038001E1020002108031D0D2020002008230089
:060048009A000900090006
:10004E0012001E00F003031D2728F103031D2728AD
:02005E00080098
:100060002000A001A1012100FC308C0020008C01A7
:100070002100F030990023008C01220084309D0083
:1000800023009C01230001309B00230004309F00CB
:10009000230064309E00230090309D002000A101C9
:0E00A000210091168B010B178B17552856283F
:020000040001F9
:04000E00E43FFF1FAD
:00000001FF
